:030000000222AE2B
:0C22AE00787FE4F6D8FD75817B0222F5F4
:05273C00122741D2A1AB
:05274100007F19DFFE1E
:012746002270
:0F272D00D2A012273CC2A0122741C2A10227410D
:0A275200C2A012273CD2A0022741CA
:07257600AC0712272D7F784E
:02257D00AE07A7
:10257F00E4FDFBEEC4131313540124FF92A0EE25C8
:10258F00E0FE12273CC2A11227410DEDC394084073
:10259F00E2D2A0122741D2A130A00F0BEBD394C8E7
:1025AF0040F6C2A11227417F0022C2A11227417F0C
:0125BF00011A
:0125C00022F8
:0527080012270DE4FFA3
:10270D00122576E4FF12257DAF0412257D02275296
:10271D001225767F4012257DAF0412257D022752AA
:10263B007F2012270D7F0212270DE4FAEA24B0FF48
:10264B001227087F1012270DE4F9E4FF12271D094A
:0E265B00E9C3948040F40AEAC3940840DF22E9
:10233A007FAE1227087F1012270D7F4012270D7FCC
:10234A008112270D7FFF12270D7FA112270D7FC84B
:10235A0012270D7FA612270D7FA812270D7F3F1285
:10236A00270D7FD31227087FD512270D7F801227CA
:10237A000D7FD912270D7FF112270D7FDA12270D53
:10238A007F1212270D7FDB12270D7F4012270D7F48
:10239A002012270D7F0212270D7F8D12270D7F1421
:1023AA0012270D7FA412270D7FA612270D7FAF12C9
:0523BA00270D02263B87
:1025C1008F7BAA03A9057F201227087F2212270DDE
:1025D100E925E0FF12270DE925E004FF12270D7F11
:1025E1002112270DEA75F008A42408857BF0A4FFC9
:1025F10012270DEA75F008A4FF2408857BF0A4FEDC
:08260100EF24072EFF02270D54
:1024B400202409CAD5B5BD000000000000000000BA
:1024C4000000000000000000000000000000000008
:1024D40000000000000000024D03E8025103200147
:1024E4005646015828024507D0024107D00234035A
:1024F40020024B00040236000A025E07D00162008B
:102504000260051401330F01440A023107D002545A
:0825140007D00447000000009D
:101F08007573BB7572B875710D75703DE4F58CF518
:101F18008AD2967F01FE1226B8C2963097FDD28CDF
:101F28002097FDC28CAF8CEFFEAD8A7C00E42DFDBE
:101F3800EC3EFCE4121B88AB73AA72A971A870125C
:101F48001964E4FBFAF97840121A6D121BC18E74F9
:101F58008F75AF8CEFFEAD8A7C00E42DFDEC3EFC66
:101F6800E4121B88AB73AA72A971A870121964E4F1
:101F7800FBFA79207841121964E4FBFAF9784012E7
:101F88001A6D121BC1AB07AA06AE74AF757C007D33
:101F98000A121C42C3EB9FFFEA9EFE7D64121C429C
:101FA800AA06AB07D3E57594E7E574940340067574
:091FB80074037575E7AE74AF7592
:011FC10022FD
:020026008F70D9
:10002800E4F571F572F573F576F577F578F579F508
:100038007AE570640160030201EBF5747B01E4FD6D
:10004800AF741225C1E4F57575F020E574A4245544
:10005800F582E5F03409F583E5822575F582E43506
:1000680083F583E493FF12271D0575E575C3942076
:1000780040D60574E574C3940840C1E4F5747B0167
:100088007D01AF741225C1E4F57575F020E574A4FF
:100098002455F582E5F0340AF583E5822575F58265
:1000A800E43583F583E493FF12271D0575E575C3D1
:1000B800942040D60574E574D3940440C1E4FB7DD4
:1000C800017F0D1225C1E4F575E57590103593FF94
:1000D80012271D0575E575C3941040EDE4F5747B92
:1000E800017D02AF741225C1E4F57575F020E57441
:1000F800A424F5F582E5F0340AF583E5822575F543
:1001080082E43583F583E493FF12271D0575E575B1
:10011800C3942040D60574E574D3940440C1E4F533
:10012800747B017D03AF741225C1E4F57575F02069
:10013800E574A42495F582E5F0340BF583E5822572
:1001480075F582E43583F583E493FF12271D057561
:10015800E575C3942040D60574E574D3940440C172
:10016800E4FB7D037F0E1225C1E4F575E57590105B
:100178004593FF12271D0575E575C3941040EDE4FE
:10018800FB7D037F0F1225C1E4F575E575901055C9
:1001980093FF12271D0575E575C3941040EDAC4D0E
:1001A800AD4EE4121B888F408E3F8D3E8C3DAC4592
:1001B800AD46E4121B888F3C8E3B8D3A8C39AB3CA4
:1001C800AA3BA93AA839AF40AE3FAD3EAC3D121AA2
:1001D8006DE4FBFA79C87842121964121BC18F5D6D
:1001E800754304E5706402600302039DF5747B01A6
:1001F800E4FDAF741225C1E4F57575F020E574A42B
:100208002435F582E5F0340CF583E5822575F58211
:10021800E43583F583E493FF12271D0575E575C35F
:10022800942040D60574E574D3940740C1E4F5746E
:100238007B017D01AF741225C1E4F57575F020E5E9
:1002480074A42455F582E5F0340AF583E582257512
:10025800F582E43583F583E493FF12271D0575E5E0
:1002680075C3942040D60574E574D3940440C1E462
:10027800FB7D017F0D1225C1E4F575E575901035FC
:1002880093FF12271D0575E575C3941040EDE4F53D
:10029800747B017D02AF741225C1E4F57575F020F9
:1002A800E574A42435F582E5F0340DF583E582255F
:1002B80075F582E43583F583E493FF12271D0575F0
:1002C800E575C3942040D60574E574D3940440C101
:1002D800E4F5747B017D03AF741225C1E4F57575EF
:1002E800F020E574A42495F582E5F0340BF583E558
:1002F800822575F582E43583F583E493FF12271D83
:100308000575E575C3942040D60574E574D3940447
:1003180040C1E4FB7D037F0E1225C1E4F575E57548
:1003280090104593FF12271D0575E575C39410407D
:10033800EDE4FB7D037F0F1225C1E4F575E57590AB
:10034800105593FF12271D0575E575C3941040EDF0
:10035800AC34AD35E4121B888F408E3F8D3E8C3D0A
:10036800AC5EAD5FE4121B888F3C8E3B8D3A8C39B6
:10037800AB3CAA3BA93AA839AF40AE3FAD3EAC3D35
:10038800121A6DE4FBFA79C87842121964121BC17B
:100398008F5D754304E5706403600302050DF57411
:1003A8007B01E4FDAF741225C1E4F57575F020E515
:1003B80074A424D5F582E5F0340DF583E58225751E
:1003C800F582E43583F583E493FF12271D0575E56F
:1003D80075C3942040D60574E574D3940740C1E4EE
:1003E800F5747B017D01AF741225C1E4F57575F0D4
:1003F80020E574A42455F582E5F0340AF583E582F6
:100408002575F582E43583F583E493FF12271D05EE
:1004180075E575C3942040D60574E574D3940440FB
:10042800C1E4FB7D017F0D1225C1E4F575E57590EA
:10043800103593FF12271D0575E575C3941040ED1F
:10044800E4F5747B017D02AF741225C1E4F575757E
:10045800F020E574A424D5F582E5F0340EF583E5A3
:10046800822575F582E43583F583E493FF12271D11
:100478000575E575C3942040D60574E574D39404D6
:1004880040C1E4F5747B017D03AF741225C1E4F526
:100498007575F020E574A42495F582E5F0340BF524
:1004A80083E5822575F582E43583F583E493FF12AD
:1004B800271D0575E575C3942040D60574E574D3EA
:1004C800940440C1E4FB7D037F0E1225C1E4F57559
:1004D800E57590104593FF12271D0575E575C394C2
:1004E8001040EDE4FB7D037F0F1225C1E4F575E5AF
:1004F8007590105593FF12271D0575E575C3941067
:1005080040ED754304E57064046003020954E55D39
:1005180075F06484F57375F00AA4FFE55D75F00A5B
:1005280084C39FF572E55D75F00A8485F071E55026
:1005380075F06484F57675F00AA4FFE55075F00A45
:1005480084C39FF577E55075F00A8485F078E55CFB
:1005580075F00A84F579E55C75F00A8485F07AE52A
:100568005DC39464500302060DE4FB7D017F0A120B
:1005780025C1E4F575E573C454F02495F582E43497
:100588000FF583E5822575F582E43583F583E493D9
:10059800FF12271D0575E575C3941040D8E4FB7D4F
:1005A800017F0B1225C1E4F575E572C454F024955A
:1005B800F582E4340FF583E5822575F582E4358309
:1005C800F583E493FF12271D0575E575C394104064
:1005D800D8E4FB7D017F0C1225C1E4F575E571C4F3
:1005E80054F02495F582E4340FF583E5822575F5FA
:1005F80082E43583F583E493FF12271D0575E575BD
:10060800C3941040D8E55DC3946440030206A8E58E
:100618005DC3940A50030206A8E4FB7D017F0A1219
:1006280025C1E4F575E57590106593FF12271D0542
:1006380075E575C3941040EDE4FB7D017F0B122531
:10064800C1E4F575E572C454F02495F582E4340FDD
:10065800F583E5822575F582E43583F583E493FF18
:1006680012271D0575E575C3941040D8E4FB7D017C
:100678007F0C1225C1E4F575E571C454F02495F595
:1006880082E4340FF583E5822575F582E43583F538
:1006980083E493FF12271D0575E575C3941040D8B0
:1006A800E55DC3940A5079E55DC394004072E4FBAC
:1006B8007D017F0A1225C1E4F575E57590106593F3
:1006C800FF12271D0575E575C3941040EDE4FB7D09
:1006D800017F0B1225C1E4F575E57590106593FF50
:1006E80012271D0575E575C3941040EDE4FB7D01E7
:1006F8007F0C1225C1E4F575E571C454F02495F515
:1007080082E4340FF583E5822575F582E43583F5B7
:1007180083E493FF12271D0575E575C3941040D82F
:100728007B017D027F051225C1E4F57575F020E592
:1007380079A42475F582E5F03410F583E5822575F2
:10074800F582E43583F583E493FF12271D0575E5EB
:1007580075C3942040D67B017D027F061225C1E433
:10076800F57575F020E57AA42475F582E5F0341066
:10077800F583E5822575F582E43583F583E493FFF7
:1007880012271D0575E575C3942040D6E550C3941E
:1007980064500302083AE4FB7D037F0B1225C1E491
:1007A800F575E576C454F02495F582E4340FF583A5
:1007B800E5822575F582E43583F583E493FF1227F6
:1007C8001D0575E575C3941040D8E4FB7D037F0CC7
:1007D8001225C1E4F575E577C454F02495F582E453
:1007E800340FF583E5822575F582E43583F583E4D6
:1007F80093FF12271D0575E575C3941040D8E4FBD7
:100808007D037F0D1225C1E4F575E578C454F02405
:1008180095F582E4340FF583E5822575F582E43594
:1008280083F583E493FF12271D0575E575C39410BE
:1008380040D8E550C3940A50030208D4E5509464A4
:1008480040030208D4E4FB7D037F0B1225C1E4F5C5
:1008580075E57590106593FF12271D0575E575C33D
:10086800941040EDE4FB7D037F0C1225C1E4F5757F
:10087800E577C454F02495F582E4340FF583E582D6
:100888002575F582E43583F583E493FF12271D056A
:1008980075E575C3941040D8E4FB7D037F0D1225E0
:1008A800C1E4F575E578C454F02495F582E4340F75
:1008B800F583E5822575F582E43583F583E493FFB6
:1008C80012271D0575E575C3941040D8E550C394EB
:1008D8000A5079E55094004073E4FB7D037F0B12C6
:1008E80025C1E4F575E57590106593FF12271D0580
:1008F80075E575C3941040EDE4FB7D037F0C12256C
:10090800C1E4F575E57590106593FF12271D05750F
:10091800E575C3941040EDE4FB7D037F0D1225C1FE
:10092800E4F575E578C454F02495F582E4340FF5C0
:1009380083E5822575F582E43583F583E493FF1218
:0C094800271D0575E575C3941040D822EA
:010954002280
:10266900AF42AE4112268BC280C281C282C283C2EE
:1026790084C285C286C287C3E55F9542FFE55E9540
:0226890041FE10
:0B268B00EF1FAC0670011E4C70F62221
:101D7200755C01122747AC34AD35E4121B888F40E5
:101D82008E3F8D3E8C3DAC5EAD5FE4121B888F3C76
:101D92008E3B8D3A8C39AB3CAA3BA93AA839AF406D
:101DA200AE3FAD3EAC3D121A6DE4FBFA79C8784203
:101DB200121964121BC18F5DE4F55AF55BC3E55B32
:101DC2009537E55A953650782090592091562092B1
:101DD20053209350E550940F50028048D280C28124
:101DE200D282C283D284C285D286C287AF35AE3454
:101DF20012268BC280C281C282C283C284C285C2C1
:101E020086C287C3E55F9535FFE55E9534FE1226EF
:101E12008B20901020910D20920A209307E550D339
:101E2200940F5011C280C281C282C283C284C28511
:101E3200C286C28722055BE55B7002055A021DBF9E
:011E4200227D
:0F23BF001224411224411224411223CE1223CEA4
:1023CE00755C43AC34AD35E4121B888F408E3F8D67
:1023DE003E8C3DAC5EAD5FE4121B888F3C8E3B8D18
:1023EE003A8C39AB3CAA3BA93AA839AF40AE3FADC7
:1023FE003EAC3D121A6DE4FBFA79C87842121964AC
:10240E00121BC18F5DE4F55AF55BC3E55B954CE598
:10241E005A954B501DD280C281C282D283D284C2C1
:10242E0085C286D287122669055BE55B70DC055A8C
:03243E0080D82221
:10244100755C2DAC34AD35E4121B888F408E3F8D09
:102451003E8C3DAC5EAD5FE4121B888F3C8E3B8DA4
:102461003A8C39AB3CAA3BA93AA839AF40AE3FAD53
:102471003EAC3D121A6DE4FBFA79C8784212196438
:10248100121BC18F5DE4F55AF55BC3E55B954CE525
:102491005A954B501DC280D281D282C283C284D24E
:1024A10085D286C287122669055BE55B70DC055A19
:0324B10080D822AE
:101C620020900F20910C309209209306E4F538025F
:101C72001D1120900F20910C209209309306753887
:101C820001021D1120900E20910B30920830930515
:101C9200753802807A20900E30910B309208309382
:101CA20005753803806920900E20910B2092082040
:101CB2009305753804805820900E30910B309208AD
:101CC200209305753805804720900E30910B2092A5
:101CD20008209305753806803630900E20910B202F
:101CE2009208209305753807802530900E30910BAD
:101CF200209208209305753808801430900E309198
:101D02000B309208209305753809800375380AE56F
:101D120038B40B005053901D1FF8282873021D4041
:101D2200021D42021D44021D46021D51021D5302A4
:101D32001D59021D61021D61021D61021D668004A2
:101D420080028003122441122441122441801D800A
:101D520000121D720562221223CE1223CE800D12B2
:101D620023C880081223BF80031223BFE4F5622236
:030023000211B512
:1011B500C0E0C0F0C083C082C0D075D000C000C000
:0D11C50001C002C003C004C005C006C00781
:1011D200C2AF20980302182FC29885995775430110
:1011E200E5576431600302129AE54F64026003021C
:1011F200129A755C01754301F55AF55BC3E55B957F
:1012020056E55A9400503FD280C281D282C283D224
:1012120084C285D286C287AF4EAE4D12268BC28063
:10122200C281C282C283C284C285C286C287C3E52A
:1012320046954EFFE545954DFE12268B055BE55B17
:1012420070BA055A80B6C280C281C282C283C28489
:10125200C285C286C287AC4DAD4EE4121B888F4058
:101262008E3F8D3E8C3DAC45AD46E4121B888F3CD3
:101272008E3B8D3A8C39AB3CAA3BA93AA839AF4098
:10128200AE3FAD3EAC3D121A6DE4FBFA79C878422E
:10129200121964121BC18F5DE55764326003021399
:1012A20052E54F64026003021352755C17754301E5
:1012B200F55AF55BC3E55B9556E55A9400503FC27B
:1012C20080D281C282D283C284D285C286D287AFC3
:1012D2004EAE4D12268BC280C281C282C283C284AC
:1012E200C285C286C287C3E546954EFFE545954D48
:1012F200FE12268B055BE55B70BA055A80B6C2808A
:10130200C281C282C283C284C285C286C287AC4DF8
:10131200AD4EE4121B888F408E3F8D3E8C3DAC4516
:10132200AD46E4121B888F3C8E3B8D3A8C39AB3C28
:10133200AA3BA93AA839AF40AE3FAD3EAC3D121A26
:101342006DE4FBFA79C87842121964121BC18F5DF1
:10135200E5576433600302140AE54F640260030236
:10136200140A755C2D754301F55AF55BC3E55B956F
:1013720058E55A9400503FC280D281D282C283C2C1
:1013820084D285D286C287AF52AE5112268BC280DA
:10139200C281C282C283C284C285C286C287C3E5B9
:1013A200469552FFE5459551FE12268B055BE55B9E
:1013B20070BA055A80B6C280C281C282C283C28418
:1013C200C285C286C287AC4DAD4EE4121B888F40E7
:1013D2008E3F8D3E8C3DAC45AD46E4121B888F3C62
:1013E2008E3B8D3A8C39AB3CAA3BA93AA839AF4027
:1013F200AE3FAD3EAC3D121A6DE4FBFA79C87842BD
:10140200121964121BC18F5DE55764346003021424
:10141200C2E54F640260030214C2755C4375430166
:10142200F55AF55BC3E55B9558E55A9400503FD2F7
:1014320080C281C282D283D284C285C286D287AF61
:1014420052AE5112268BC280C281C282C283C28432
:10145200C285C286C287C3E5469552FFE5459551CE
:10146200FE12268B055BE55B70BA055A80B6C28018
:10147200C281C282C283C284C285C286C287AC4D87
:10148200AD4EE4121B888F408E3F8D3E8C3DAC45A5
:10149200AD46E4121B888F3C8E3B8D3A8C39AB3CB7
:1014A200AA3BA93AA839AF40AE3FAD3EAC3D121AB5
:1014B2006DE4FBFA79C87842121964121BC18F5D80
:1014C200E557B4301C755C59754301754F02C280F3
:1014D200C281C282C283C284C285C286C287755D4E
:1014E20000E55764757074E54F6402706E74C82528
:1014F2004EF54EE4354DF54DFCAD4EE4121B888F92
:10150200408E3F8D3E8C3DAC45AD46E4121B888F2C
:101512003C8E3B8D3A8C39AB3CAA3BA93AA839AFF9
:1015220040AE3FAD3EAC3D121A6DE4FBFA79C8788D
:1015320042121964121BC18F5DC3E54E9458E54DEA
:1015420094025006754D02754E58D3E54E9546E508
:101552004D9545400685454D85464EE55764647078
:1015620075E54F6402706F7438254EF54E74FF3581
:101572004DF54DFCAD4EE4121B888F408E3F8D3EE3
:101582008C3DAC45AD46E4121B888F3C8E3B8D3AB8
:101592008C39AB3CAA3BA93AA839AF40AE3FAD3E2D
:1015A200AC3D121A6DE4FBFA79C878421219641242
:1015B2001BC18F5DC3E54E9458E54D9402500675EC
:1015C2004D02754E58D3E54E9546E54D954540067C
:1015D20085454D85464EE557B47532E54FB4012D2C
:1015E20074C82561F561E43560F560C3E561942056
:1015F200E56094035006756003756120D3E561953B
:1016020055E56095544006855460855561E557B4AB
:101612006433E54FB4012E74382561F56174FF35EA
:1016220060F560C3E5619420E5609403500675603F
:1016320003756120D3E5619555E5609554400685B3
:101642005460855561E5576465600302182475434B
:1016520002F562E562C394054006753600753723CC
:10166200E562D39405506EAC34AD35E4121B887B31
:10167200AC7A1B79237837121964C004C005C006FE
:10168200C007AC34AD35E4121B88D003D002D001C0
:10169200D000121964C004C005C006C007AC34AD46
:1016A20035E4121B887BCD7AE4791B783D121964EC
:1016B200A804A905AA06AB07D007D006D005D00416
:1016C20012186F7BCD7ACC79387842121873121BBC
:1016D200C18E368F37AF43120026122747121C6283
:1016E200E550D394145023754301C280D281C28243
:1016F200D283C284D285C286D287AE34AF357C0013
:101702007D14121C4212268B80102098030216555B
:10171200C298859957E557B43013C280C281C282FC
:10172200C283C284C285C286C287021821E5576479
:1017320075706E74C82535F535E43534F534FCAD75
:1017420035E4121B888F408E3F8D3E8C3DAC5EADE2
:101752005FE4121B888F3C8E3B8D3A8C39AB3CAADE
:101762003BA93AA839AF40AE3FAD3EAC3D121A6D2F
:10177200E4FBFA79C87842121964121BC18F5DC367
:10178200E5359420E534940350067534037535200D
:10179200D3E535955FE534955E4006855E34855F19
:1017A20035E5576464600302165574382535F535FE
:1017B20074FF3534F534FCAD35E4121B888F408E4E
:1017C2003F8D3E8C3DAC5EAD5FE4121B888F3C8E3C
:1017D2003B8D3A8C39AB3CAA3BA93AA839AF40AE13
:1017E2003FAD3EAC3D121A6DE4FBFA79C878421265
:1017F2001964121BC18F5DC3E5359420E53494034F
:101802005006753403753520D3E535955FE534957B
:101812005E5003021655855E34855F350216557596
:101822004301E557B47A06754303754F01756F009E
:101832007409256FF8E6F5993099FDC2997F017E0A
:0F184200001226F2056FE56FC3942440E3D2AF86
:10185100D007D006D005D004D003D002D001D000EB
:0B186100D0D0D082D083D0F0D0E03295
:10269600E4F530F52F752E90752D40F54AF549F580
:0326A60048F547AD
:0E26A90000007F097E687D8BDDFEDEFCDFFA1F
:0126B7002200
:0B274700C296438901121F088F502228
:1026D800E4F58BF58D538E7F5389F0758BD2758D0C
:0A26E800FFC28FD28ED2AFD2AB2218
:03001B00021FC2FF
:101FC200C0E0C0F0C083C082C0D075D000C000C0E5
:101FD20001C002C003C004C005C006C007C28E759E
:101FE2008BD7758DFDAF30AE2FAD2EAC2DAB4AAA7F
:101FF20049A948A847121B0A60025004D2A58002D0
:10200200C2A5AF4AAE49AD48AC47E4FBFAF9783F06
:102012001218738F4A8E498D488C47E4FFFE7D4823
:102022007C43AB4AAA49A948A847121B0A400C752F
:102032004A00754900754800754700D28ED007D016
:1020420006D005D004D003D002D001D000D0D0D029
:0820520082D083D0F0D0E0320F
:10251D00122696122747855050AF43120026E4F538
:10252D0030F52F752EC0752D3F1226A11227478528
:10253D005059AF4312002612269612274785505048
:10254D00AF43120026E4F530F52F752EF012269EBE
:10255D00122747855008AF431200261226961227E0
:09256D0047855050AF43020026DF
:101E4300E550D394124045E508D3940E4009E55973
:101E5300D3940E4002800EE508C3940F500CE5594D
:101E6300C3940F5005E4F5538022E508C3940F5043
:101E73000BE559940F40057553028010E508D39480
:101E83000F4009E559940F5003755303E550C3946C
:101E9300125056E508C39414500CE559C3941450DA
:101EA300057553018022E508D39414400BE559943A
:101EB3001450057553038010E508C394145009E5C5
:101EC3005994144003755302E508C39414401AE56A
:101ED3005994144014E508D395594003755303E509
:101EE30008C395595003755302E55314600D1460EC
:101EF3000D14600D2403700C02205A0220EF0221FE
:051F03008412221922E6
:10205A00755C01AC60AD61E4121B888F408E3F8DC8
:10206A003E8C3DAC54AD55E4121B888F3C8E3B8DA3
:10207A003A8C39AB3CAA3BA93AA839AF40AE3FAD3E
:10208A003EAC3D121A6DE4FBFA79C8784212196423
:10209A00121BC18F5DE4F55AF55BC3E55B9533E529
:1020AA005A9400503FD280C281D282C283D284C263
:1020BA0085D286C287AF61AE6012268BC280C2818A
:1020CA00C282C283C284C285C286C287C3E55595CD
:1020DA0061FFE5549560FE12268B055BE55B70BADD
:0520EA00055A80B6223A
:1020EF00755C17AC60AD61E4121B888F408E3F8D1D
:1020FF003E8C3DAC54AD55E4121B888F3C8E3B8D0E
:10210F003A8C39AB3CAA3BA93AA839AF40AE3FADA8
:10211F003EAC3D121A6DE4FBFA79C878421219648D
:10212F00121BC18F5DE4F55AF55BC3E55B9533E593
:10213F005A9400503FC280D281C282D283C284D2CD
:10214F0085C286D287AF61AE6012268BC280C281F4
:10215F00C282C283C284C285C286C287C3E5559537
:10216F0061FFE5549560FE12268B055BE55B70BA47
:05217F00055A80B622A4
:10218400755C43AC60AD61E4121B888F408E3F8D5B
:102194003E8C3DAC54AD55E4121B888F3C8E3B8D78
:1021A4003A8C39AB3CAA3BA93AA839AF40AE3FAD13
:1021B4003EAC3D121A6DE4FBFA79C87842121964F8
:1021C400121BC18F5DE4F55AF55BC3E55B9544E5ED
:1021D4005A9400503FD280C281C282D283D284C238
:1021E40085C286D287AF32AE3112268BC280C281BD
:1021F400C282C283C284C285C286C287C3E55595A2
:1022040032FFE5549531FE12268B055BE55B70BA0F
:05221400055A80B6220E
:10221900755C2DAC60AD61E4121B888F408E3F8DDB
:102229003E8C3DAC54AD55E4121B888F3C8E3B8DE2
:102239003A8C39AB3CAA3BA93AA839AF40AE3FAD7D
:102249003EAC3D121A6DE4FBFA79C8784212196462
:10225900121BC18F5DE4F55AF55BC3E55B9544E557
:102269005A9400503FC280D281D282C283C284D2A2
:1022790085D286C287AF32AE3112268BC280C28127
:10228900C282C283C284C285C286C287C3E555950C
:1022990032FFE5549531FE12268B055BE55B70BA7A
:0522A900055A80B62279
:1026B800E4FDFCC3ED9FEC9E5015E4FBFA0BBB0058
:0F26C800010AEB64704A70F50DBD00010C80E44F
:0126D70022E0
:1026F200E4FDEDC39FE49E500CE4FC0CECD39494F7
:0527020040F90D80ED1F
:0127070022AF
:102609001226D812269612233A754301755C59751C
:102619004F02122747AF43120026120003E54FB4B9
:1026290001F012251D121E43E54FB402F51226963C
:0226390080E03F
:1000030053877F759850538EFB759CFD438E014338
:070013008E10D2ACD2AF2227
:100955001010D0FF9014E4AFA4A4A4AFE4040000E9
:10096500040300FF00894B2A1A0E1A2A4B888000BF
:10097500101090909090901010FF1010111610000C
:10098500002060203F10101000030C102040F800DC
:100995000000000000000000000000000000000052
:1009A50000003636000000000000000000000000D6
:1009B50000002424242424FC2222222322000000D7
:1009C500020202020242827F0202020202020200C7
:1009D5001010D0FF901000FE020202FE0000000081
:1009E500040300FF0083601F0000003F40407800C3
:1009F500404042CC00004A32222AF121312D00002C
:100A05000080403F408081BDA1A1BFA1A1BD810063
:100A1500101010FF9020984828090E2848A81800A3
:100A25000242817F0040404242427E4242424000B3
:100A350000000000000000000000000000000000B1
:100A45000000182424180000000000000000000029
:100A5500404042CC00202222A26222222220000015
:100A65000040201F20444E4544444445464C400028
:100A7500001088C4330040424242C2424242400014
:100A8500020100FF0000000040807F000000000020
:100A950000FC848484FC001010101010FF1010005E
:100AA500003F1010103F0000010640807F0000004D
:100AB500404042CC0004F49494FF9494F404000064
:100AC5000040201F20484442415F414244484000C5
:100AD5000000000000000000000000000000000011
:100AE5000000363600000000000000000000000095
:100AF500404042CC00004A32222AF121312D00002B
:100B05000080403F408081BDA1A1BFA1A1BD810062
:100B1500101010FF9020984828090E2848A81800A2
:100B25000242817F0040404242427E4242424000B2
:100B35001010FF1090E02F29E909E9292FE00000A6
:100B450042827F414425150D05FE0D1525454400BE
:100B5500008060F80740300FF8888888880808000A
:100B6500010000FF00000000FF0808080808000059
:100B75000000000000000000000000000000000070
:100B850000003636000000000000000000000000F4
:100B950000FE0222DA0610D2565A535A56D21000D7
:100BA50000FF0810080710171515FD15151710007B
:100BB5000484E45C44C400BEAAAAAAAABE800000BC
:100BC50002017F10103F020A1242827F02020200D8
:100BD500403C10FF101020108F7808F808F800002E
:100BE500020602FF0101044221184681403F000030
:100BF500003E22E2223E00FE2222222222E20200C2
:100C0500203F201F1111007F4444444444474000C5
:100C1500040404F484D4A5A6A4D484F40404040030
:100C250000FE0202123A1613121A3242827E0000A8
:100C35001010D0FF9014E4AFA4A4A4AFE404000006
:100C4500040300FF00894B2A1A0E1A2A4B888000DC
:100C5500101090909090901010FF10101116100029
:100C6500002060203F10101000030C102040F800F9
:100C7500000000000000000000000000000000006F
:100C850000003636000000000000000000000000F3
:100C9500000000F8888C8A89888888F800000000A0
:100CA500000000FF44444444444444FF0000000065
:100CB5004044C4444444401010FF101010F000009C
:100CC500103C131014B840300E014080403F000026
:100CD500000082929292929292929292FE0000006D
:100CE500040404040C34040444847F040404040050
:100CF500404042CC0008C808F8090EF808488800AA
:100D05000040201F205148464148504F4040410077
:100D150000000000000000000000000000000000CE
:100D25000000182424180000000000000000000046
:100D3500000082929292929292929292FE0000000C
:100D4500040404040C34040444847F0404040400EF
:100D5500404042CC0008C808F8090EF80848880049
:100D65000040201F205148464148504F4040410017
:100D75001010FF1090E02F29E909E9292FE0000064
:100D850042827F414425150D05FE0D15254544007C
:100D9500008060F80740300FF888888888080800C8
:100DA500010000FF00000000FF0808080808000017
:100DB500000000000000000000000000000000002E
:100DC50000003636000000000000000000000000B2
:100DD5001010D0FF9014E4AFA4A4A4AFE404000065
:100DE500040300FF00894B2A1A0E1A2A4B8880003B
:100DF500101090909090901010FF10101116100088
:100E0500002060203F10101000030C102040F80057
:100E150000000000000000000000000000000000CD
:100E25000000363600000000000000000000000051
:100E3500000000F8888C8A89888888F800000000FE
:100E4500000000FF44444444444444FF00000000C3
:100E55004044C4444444401010FF101010F00000FA
:100E6500103C131014B840300E014080403F000084
:100E75004042CC00807E22223E005465C664540068
:100E850040201F22415F49495F4042425F42420084
:100E950000FE0222DA0610D2565A535A56D21000D4
:100EA50000FF0810080710171515FD151517100078
:100EB500000000000000000000000000000000002D
:100EC50000001824241800000000000000000000A5
:100ED5004042CC00807E22223E005465C664540008
:100EE50040201F22415F49495F4042425F42420024
:100EF50000FE0222DA0610D2565A535A56D2100074
:100F050000FF0810080710171515FD151517100017
:100F15001010FF1090E02F29E909E9292FE00000C2
:100F250042827F414425150D05FE0D1525454400DA
:100F3500008060F80740300FF88888888808080026
:100F4500010000FF00000000FF0808080808000075
:100F5500000000000000000000000000000000008C
:100F65000000363600000000000000000000000010
:100F7500000000000000000000000000000000006C
:100F8500000000000000000000000000000000005C
:100F950000E010080810E000000F102020100F00DE
:100FA50000001010F8000000000020203F20200065
:100FB500007008080808F0000030282422213000BD
:100FC50000300808088870000018202121221C0024
:100FD5000000804030F8000000060524243F24244A
:100FE50000F88888880808000019202020110E00C4
:100FF50000E0108888900000000F112020201F00BD
:1010050000180808886818000000003E010000006C
:101015000070880808887000001C222121221C000D
:1010250000F008080810E0000001122222110F004C
:10103500F008F0806018000000310C031E211E002E
:10104500C0300808080838000718202020100800BC
:1010550008F8F800F8F80800203F013E013F20009D
:10106500000000000000000000000000000000007B
:101075000808E8292E28E80808C80C0BE808080025
:101085000000FF0949897F00000F40807F000000B4
:10109500404042CC00808888FF8888FF888880008F
:1010A5000040201F2040504C4340405F40404000DE
:1010B500000000FC242424242222222322202000B4
:1010C5004020180700FE424242424242FE00000014
:1010D500404042CC0000FF4949C949497F80000092
:1010E5000040201F20405F48444041424558400091
:1010F5000808080888780F0808080808080808007C
:1011050020104846414141417F4141414140400015
:10111500C8B88FE88888404848E85F484848400094
:10112500081808FF040400020B1222D20A06000068
:1011350008080808C8380F0808080808080808003B
:1011450008040201FF41414141414141FF000000C6
:10115500C8B88FE88888404848E85F484848400054
:10116500081808FF040400020B1222D20A06000028
:101175008060F807000474545556545474040000F4
:101185000000FF0003010545857D050505010300F8
:101195000008884828180FE808080808080800000B
:1011A50008080909090909FF0909090909080800C1
:10186C00021C2DE86480F8E933E83360110460F061
:10187C00ED33EC337009E8FCE9FDEAFEEBFF2204E2
:10188C0060DED3EB9FEA9EE99DE8C2E78CF0C2F7DD
:10189C0095F0400CE8CCF8E9CDF9EACEFAEBCFFBA9
:1018AC00121BF885D0F05804700320D5B3E80470EF
:1018BC00075002B2D5021C3792D5EC0460F7E4CC89
:1018CC00C0E0C398F8603B94186008400DD0E0FB72
:1018DC00021C0FE4FBFAC9FC8028E830E406E4C9DA
:1018EC00FBE4CAFCE830E305E4C9CACBFCE85407C6
:1018FC006010F8C3E913F9EA13FAEB13FBEC13FCD1
:10190C00D8F130F52FC3E49CFCEF9BFFEE9AFEED73
:10191C0099FDD0E0FBEF4E4D4C701222DB03021C04
:10192C0034EC2CFCEF33FFEE33FEED33FDED30E702
:10193C00EB021C0FEF2BFFEE3AFEED39FDD0E0FB76
:10194C0050130BBB0003021C37ED13FDEE13FEEF1F
:08195C0013FFEC13FC021C0F49
:10196400EC4D6011E8497017ED33EC3304600DE47D
:10197400FCFFFEFD22E933E8330470F8021C2D124B
:101984001BF858046009E4CC24815006285009024D
:101994001C37284003021C34C0E0EB4A7044B98071
:1019A40006D0E0FB021C23EF4E701CBD8008EBFF49
:1019B400EAFEE9FD80EBE98DF0A4FEE5F0021A4DA4
:1019C400E9CDF9EAFEEBFFEF89F0A4FCE5F0CE895E
:1019D400F0A42EFFE435F0CD89F0A42DFEE435F01B
:1019E4008067EF4E7005BD80D780C3EF8BF0A4AC49
:1019F400F0EE8BF0A42CFCE435F0F8EF8AF0A42C84
:101A0400E5F038FCE433CB8DF0A42CFCE5F03BF896
:101A1400EE8AF0A42CFCE5F038F8E433CF89F0A486
:101A24002CFCE5F038CF3400CE89F0A42FFFE5F08C
:101A34003EFEE433C98DF0A42EFEE5F039CD8AF0E4
:101A4400A42FFFE5F03EFEE43DFD33D0E0FB50075C
:101A54000BBB000F021C37EC2CFCEF33FFEE33FE04
:061A6400ED33FD021C0F32
:101A6A00021C37EC5D046005E859047003021C2D62
:101A7A00121BF8580460F6EC4860F2EC7004FDFEA4
:101A8A00FF22C860DB2481C85009C398600250064F
:101A9A00021C349850CAF582E9294B4A7005AB8278
:101AAA00021C2375F0007C1A7880C3EF9BEE9AED36
:101ABA0099400DC3EF9BFFEE9AFEED99FDE842F0C7
:101ACA00DC23ACF0D0E0FFD0E0FED0E0FDAB82201A
:101ADA00E7101BEB60BAEC2CFCEF33FFEE33FEEDA4
:101AEA0033FD021C0FE803F830E705C0F075F0007B
:101AFA00EF2FFFEE33FEED33FD40B830E7C280AA88
:101B0A0074F8CC6480CCC86480C8F58204604FC382
:101B1A00EB9FF5F0EA9E42F0E99D42F0E89C45F021
:101B2A00603C501DE5825FFFE582D313CB5BCBF4AB
:101B3A002B5582FB50280ABA002409B900200880D4
:101B4A001DE5825BFBE582D313CF5FCFF4C3132F6E
:101B5A005582FF50090EBE00050DBD00010CC3EBF6
:101B6A009FF5F0EA9E42F0E99D42F0E89C45F0605C
:091B7A0007CC4820E701B3EC227E
:101B830075F020800E75F010800575F0087D007EDD
:101B9300007F003392D530D503121C54EC33401030
:101BA300EF33FFEE33FEED33FDEC33FCD5F0ED22E6
:0E1BB300E5F0247EA2D513CC92E7CDCEFF2222
:101BC100EDD2E7CD33EC3392D524814006E4FFFE1C
:101BD100FDFC22FCE4CFCECDCC24E0501174FF807B
:101BE100EDC3CC13CCCD13CDCE13CECF13CF047018
:071BF100F030D5DE021C54A8
:101BF800E9D2E7C933E833F892D5EDD2E7CD33EC33
:071C080033FC5002B2D522AB
:101C0F00EC30E7100FBF000C0EBE00080DBD000436
:101C1F000BEB6014A2D5EB13FCED92E7FD2274FFE2
:101C2F00FCFDFEFF22E480F8A2D574FF13FC7D803B
:031C3F00E480EF4F
:1022BA00022609E493A3F8E493A34003F68001F20B
:1022CA0008DFF48029E493A3F85407240CC8C33325
:1022DA00C4540F4420C8834004F456800146F6DFF4
:1022EA00E4800B01020408102040809024B4E47EAC
:1022FA00019360BCA3FF543F30E509541FFEE493E9
:10230A00A360010ECF54C025E060A840B8E493A3AF
:10231A00FAE493A3F8E493A3C8C582C8CAC583CADA
:10232A00F0A3C8C582C8CAC583CADFE9DEE780BE92
:01251C0000BE
:101C4200EF8DF0A4A8F0CF8CF0A428CE8DF0A42EB6
:021C5200FE2270
:0E1C5400C3E49FFFE49EFEE49DFDE49CFC22A1
:00000001FF
